{
  "contractName": "Crowdsourcing",
  "abi": [
    {
      "anonymous": false,
      "inputs": [
        {
          "indexed": true,
          "internalType": "address",
          "name": "_task",
          "type": "address"
        },
        {
          "indexed": false,
          "internalType": "string",
          "name": "description",
          "type": "string"
        }
      ],
      "name": "TaskPublished",
      "type": "event"
    },
    {
      "anonymous": false,
      "inputs": [
        {
          "indexed": true,
          "internalType": "address",
          "name": "_from",
          "type": "address"
        },
        {
          "indexed": true,
          "internalType": "address",
          "name": "_to",
          "type": "address"
        },
        {
          "indexed": false,
          "internalType": "uint256",
          "name": "_val",
          "type": "uint256"
        }
      ],
      "name": "Tranfer",
      "type": "event"
    },
    {
      "payable": true,
      "stateMutability": "payable",
      "type": "fallback"
    },
    {
      "constant": false,
      "inputs": [
        {
          "internalType": "address payable",
          "name": "requester",
          "type": "address"
        },
        {
          "internalType": "uint256",
          "name": "collater",
          "type": "uint256"
        },
        {
          "internalType": "uint256",
          "name": "workers_needed",
          "type": "uint256"
        },
        {
          "internalType": "string",
          "name": "description",
          "type": "string"
        }
      ],
      "name": "PublishCrowdsourcingTask",
      "outputs": [],
      "payable": false,
      "stateMutability": "nonpayable",
      "type": "function"
    },
    {
      "constant": true,
      "inputs": [
        {
          "internalType": "address",
          "name": "task",
          "type": "address"
        }
      ],
      "name": "RemainingWorkers",
      "outputs": [
        {
          "internalType": "uint256",
          "name": "rem",
          "type": "uint256"
        }
      ],
      "payable": false,
      "stateMutability": "view",
      "type": "function"
    },
    {
      "constant": false,
      "inputs": [
        {
          "internalType": "address payable",
          "name": "worker",
          "type": "address"
        },
        {
          "internalType": "address payable",
          "name": "task",
          "type": "address"
        }
      ],
      "name": "JoinCrowdsourcingTask",
      "outputs": [],
      "payable": false,
      "stateMutability": "nonpayable",
      "type": "function"
    },
    {
      "constant": false,
      "inputs": [
        {
          "internalType": "address payable",
          "name": "worker",
          "type": "address"
        },
        {
          "internalType": "bool",
          "name": "isok",
          "type": "bool"
        }
      ],
      "name": "Rewarding",
      "outputs": [],
      "payable": false,
      "stateMutability": "nonpayable",
      "type": "function"
    }
  ],
  "bytecode": "0x608060405234801561001057600080fd5b5061122a806100206000396000f3fe60806040526004361061003f5760003560e01c806309912451146103a157806394d5739b14610406578063a63ac6c214610477578063bdab9a0e146104d4575b60606040518060400160405280600181526020017f01000000000000000000000000000000000000000000000000000000000000008152509050606060405180604001604052806001815260200160008152509050816040516020018082805190602001908083835b602083106100cb57805182526020820191506020810190506020830392506100a8565b6001836020036101000a038019825116818451168082178552505050505050905001915050604051602081830303815290604052805190602001206000366040516020018083838082843780830192505050925050506040516020818303038152906040528051906020012014806101e35750806040516020018082805190602001908083835b602083106101755780518252602082019150602081019050602083039250610152565b6001836020036101000a0380198251168184511680821785525050505050509050019150506040516020818303038152906040528051906020012060003660405160200180838380828437808301925050509250505060405160208183030381529060405280519060200120145b610255576040517f08c379a00000000000000000000000000000000000000000000000000000000081526004018080602001828103825260128152602001807f4e6f7420737570706f727465642064617461000000000000000000000000000081525060200191505060405180910390fd5b816040516020018082805190602001908083835b6020831061028c5780518252602082019150602081019050602083039250610269565b6001836020036101000a038019825116818451168082178552505050505050905001915050604051602081830303815290604052805190602001206000366040516020018083838082843780830192505050925050506040516020818303038152906040528051906020012014156103505734600160003373ffffffffffffffffffffffffffffffffffffffff1673ffffffffffffffffffffffffffffffffffffffff1681526020019081526020016000206000828254019250508190555061039d565b346000803373ffffffffffffffffffffffffffffffffffffffff1673ffffffffffffffffffffffffffffffffffffffff168152602001908152602001600020600082825401925050819055505b5050005b3480156103ad57600080fd5b506103f0600480360360208110156103c457600080fd5b81019080803573ffffffffffffffffffffffffffffffffffffffff1690602001909291905050506105d0565b6040518082815260200191505060405180910390f35b34801561041257600080fd5b506104756004803603604081101561042957600080fd5b81019080803573ffffffffffffffffffffffffffffffffffffffff169060200190929190803573ffffffffffffffffffffffffffffffffffffffff169060200190929190505050610619565b005b34801561048357600080fd5b506104d26004803603604081101561049a57600080fd5b81019080803573ffffffffffffffffffffffffffffffffffffffff16906020019092919080351515906020019092919050505061098d565b005b3480156104e057600080fd5b506105ce600480360360808110156104f757600080fd5b81019080803573ffffffffffffffffffffffffffffffffffffffff16906020019092919080359060200190929190803590602001909291908035906020019064010000000081111561054857600080fd5b82018360208201111561055a57600080fd5b8035906020019184600183028401116401000000008311171561057c57600080fd5b91908080601f016020809104026020016040519081016040528093929190818152602001838380828437600081840152601f19601f820116905080830192505050505050509192919290505050610caa565b005b6000600260008373ffffffffffffffffffffffffffffffffffffffff1673ffffffffffffffffffffffffffffffffffffffff168152602001908152602001600020549050919050565b6000600260008373ffffffffffffffffffffffffffffffffffffffff1673ffffffffffffffffffffffffffffffffffffffff168152602001908152602001600020549050600081116106b6576040517f08c379a00000000000000000000000000000000000000000000000000000000081526004018080602001828103825260248152602001806111696024913960400191505060405180910390fd5b600360008373ffffffffffffffffffffffffffffffffffffffff1673ffffffffffffffffffffffffffffffffffffffff168152602001908152602001600020546000808573ffffffffffffffffffffffffffffffffffffffff1673ffffffffffffffffffffffffffffffffffffffff16815260200190815260200160002054101561078c576040517f08c379a000000000000000000000000000000000000000000000000000000000815260040180806020018281038252602881526020018061118d6028913960400191505060405180910390fd5b6001600560008473ffffffffffffffffffffffffffffffffffffffff1673ffffffffffffffffffffffffffffffffffffffff16815260200190815260200160002060008573ffffffffffffffffffffffffffffffffffffffff1673ffffffffffffffffffffffffffffffffffffffff16815260200190815260200160002060006101000a81548160ff021916908315150217905550600360008373ffffffffffffffffffffffffffffffffffffffff1673ffffffffffffffffffffffffffffffffffffffff16815260200190815260200160002054600460008573ffffffffffffffffffffffffffffffffffffffff1673ffffffffffffffffffffffffffffffffffffffff16815260200190815260200160002060008282540192505081905550600360008373ffffffffffffffffffffffffffffffffffffffff1673ffffffffffffffffffffffffffffffffffffffff168152602001908152602001600020546000808573ffffffffffffffffffffffffffffffffffffffff1673ffffffffffffffffffffffffffffffffffffffff16815260200190815260200160002060008282540392505081905550600260008373ffffffffffffffffffffffffffffffffffffffff1673ffffffffffffffffffffffffffffffffffffffff1681526020019081526020016000206000815480929190600190039190505550505050565b60011515600560003373ffffffffffffffffffffffffffffffffffffffff1673ffffffffffffffffffffffffffffffffffffffff16815260200190815260200160002060008473ffffffffffffffffffffffffffffffffffffffff1673ffffffffffffffffffffffffffffffffffffffff16815260200190815260200160002060009054906101000a900460ff16151514610a73576040517f08c379a00000000000000000000000000000000000000000000000000000000081526004018080602001828103825260418152602001806111b56041913960600191505060405180910390fd5b8015610b45578173ffffffffffffffffffffffffffffffffffffffff166108fc600360003373ffffffffffffffffffffffffffffffffffffffff1673ffffffffffffffffffffffffffffffffffffffff16815260200190815260200160002054600460008673ffffffffffffffffffffffffffffffffffffffff1673ffffffffffffffffffffffffffffffffffffffff16815260200190815260200160002054019081150290604051600060405180830381858888f19350505050158015610b3f573d6000803e3d6000fd5b50610bcc565b8173ffffffffffffffffffffffffffffffffffffffff166108fc600460008573ffffffffffffffffffffffffffffffffffffffff1673ffffffffffffffffffffffffffffffffffffffff168152602001908152602001600020549081150290604051600060405180830381858888f19350505050158015610bca573d6000803e3d6000fd5b505b6000600560003373ffffffffffffffffffffffffffffffffffffffff1673ffffffffffffffffffffffffffffffffffffffff16815260200190815260200160002060008473ffffffffffffffffffffffffffffffffffffffff1673ffffffffffffffffffffffffffffffffffffffff16815260200190815260200160002060006101000a81548160ff0219169083151502179055506000600460008473ffffffffffffffffffffffffffffffffffffffff1673ffffffffffffffffffffffffffffffffffffffff168152602001908152602001600020819055505050565b82600160008673ffffffffffffffffffffffffffffffffffffffff1673ffffffffffffffffffffffffffffffffffffffff168152602001908152602001600020541015610d42576040517f08c379a000000000000000000000000000000000000000000000000000000000815260040180806020018281038252602881526020018061118d6028913960400191505060405180910390fd5b6000828481610d4d57fe5b049050610da082610d9b6040518060400160405280600a81526020017f0a526577617264733a2000000000000000000000000000000000000000000000815250610d9685610f31565b6110a0565b6110a0565b915083600160008773ffffffffffffffffffffffffffffffffffffffff1673ffffffffffffffffffffffffffffffffffffffff1681526020019081526020016000206000828254039250508190555080600360008773ffffffffffffffffffffffffffffffffffffffff1673ffffffffffffffffffffffffffffffffffffffff1681526020019081526020016000208190555082600260008773ffffffffffffffffffffffffffffffffffffffff1673ffffffffffffffffffffffffffffffffffffffff168152602001908152602001600020819055508473ffffffffffffffffffffffffffffffffffffffff167f362295b99791fb7f9cc554e61353656ac0f62436a3a559d02ad33dd59a038de6836040518080602001828103825283818151815260200191508051906020019080838360005b83811015610ef0578082015181840152602081019050610ed5565b50505050905090810190601f168015610f1d5780820380516001836020036101000a031916815260200191505b509250505060405180910390a25050505050565b60606000606490506060816040519080825280601f01601f191660200182016040528015610f6e5781602001600182028038833980820191505090505b50905060008090505b60008514610fe9576000600a8681610f8b57fe5b069050600a8681610f9857fe5b0495508060300160f81b838380600101945081518110610fb457fe5b60200101907effffffffffffffffffffffffffffffffffffffffffffffffffffffffffffff1916908160001a90535050610f77565b6060816040519080825280601f01601f19166020018201604052801561101e5781602001600182028038833980820191505090505b50905060008090505b8281101561109357838160018503038151811061104057fe5b602001015160f81c60f81b82828151811061105757fe5b60200101907effffffffffffffffffffffffffffffffffffffffffffffffffffffffffffff1916908160001a9053508080600101915050611027565b5080945050505050919050565b606082826040516020018083805190602001908083835b602083106110da57805182526020820191506020810190506020830392506110b7565b6001836020036101000a03801982511681845116808217855250505050505090500182805190602001908083835b6020831061112b5780518252602082019150602081019050602083039250611108565b6001836020036101000a0380198251168184511680821785525050505050509050019250505060405160208183030381529060405290509291505056fe546865207461736b206e6f206c6f6e676572206e65656473206d6f726520776f726b65724e6f7420656e6f75676820616d6f756e7420746f207061792074686520636f6c6c61746572616c734f6e6c79207265717565737465722063616e2063616c6c207468697320746f20776f726b6572732077686f207061727469636970616e747320697473207461736ba265627a7a7231582084c04c6f77bfbbbc7267e3f8ac33c05bba71217cd9912fdf6fe4b02e914df83f64736f6c63430005100032",
  "source": "// SPDX-License-Identifier: MIT\npragma solidity >=0.4.22 <0.8.0;\n\n// @title 移动众包-智能合约\n// 主要负责处理Workers和Requesters之间的关系，它需要\n// 进行：\n//      1. 负责审核Workers参与任务的请求\n//      2. 当Requesters创建任务时，保存Requesters所需要的押金\ncontract Crowdsourcing {\n    // 负责保存Workers所提交的押金，每一个地址都保存一定数量的押金\n    mapping(address => uint) workerCollaterals;\n    // 负责保存Requesters所提交的押金，每一个地址都对应一个Requesters,\n    // 上述Requesters和Workers所有的地址都需要Workers和Requesters\n    // 在每个任务时自动生成\n    mapping(address => uint) requesterCollaterals;\n    // 对于一个任务，剩下的Workers数量\n    mapping(address => uint) remainingWorkers;\n    // 对于每个任务所需要的押金\n    mapping(address => uint) taskCollaterals;\n    // 计算每个Worker应该获得的奖励\n    mapping(address => uint) workerAwards;\n    // 确保每个任务都有其对应的workers，在进行奖励分发的时候使用\n    mapping(address => mapping(address => bool)) workersOfTask;\n    // \n    // 负责在特定条件下用来进行交互的Event，进行交易的触发\n    // 假若Requester完成了任务并进行了评估，那么它就会触发一个交易来\n    // 奖励Workers，同时Workers也可以通过监听该信息来判断其\n    // 是否收到了相应的奖励\n    event Tranfer(address indexed _from, address indexed _to, uint _val);\n    event TaskPublished(address indexed _task, string description);\n    /**\n     * 为了保证该Smart Contract能够接受来自其他用户的押金\n     * 需要实现Fallback Function. \n     * Requester需要将押金从传递到智能合约的地址\n     * 后期为了进行权限控制，需要判断消息发送者是否真的为Requesters\n     * Workers需要将押金从传递到智能合约的地址 \n     * 后期为了进行权限控制，需要判断消息发送者是否真的为Workers\n     */\n    function() external payable {\n        bytes memory requester = hex\"01\";\n        bytes memory worker = hex\"00\";\n        require(keccak256(abi.encodePacked(msg.data)) == keccak256(abi.encodePacked(requester)) || \n            keccak256(abi.encodePacked(msg.data)) == keccak256(abi.encodePacked(worker)), \n            \"Not supported data\");\n        if (keccak256(abi.encodePacked(msg.data)) == keccak256(abi.encodePacked(requester))) {\n            requesterCollaterals[msg.sender] += msg.value;\n        }\n        else {\n            workerCollaterals[msg.sender] += msg.value;\n        }\n    }\n    // \n    // 创建一个新的众包任务，同时该函数会发出一个新的Event表示任务已经创建成功\n    // Workers可以通过订阅这个Event来接收到最新的Tasks的信息，从而自己决定要不要\n    // 参加该众包任务\n    function PublishCrowdsourcingTask(address payable requester, uint collater, uint workers_needed, string memory description) public {\n        // 对任务的信息进行记录，包括保存任务的押金，记录任务需要的人数\n        require (requesterCollaterals[requester] >= collater, \"Not enough amount to pay the collaterals\");\n        uint exceptedRewards = collater / workers_needed;\n        description = addString(description, addString(\"\\nRewards: \", uintToString(exceptedRewards)));\n        // 假若Requester已经提交了押金，那么其在智能合约里面存储的剩余\n        // 押金应该是大于或等于collater的\n        requesterCollaterals[requester] -= collater;\n        // 目前这个状态也是处理对于任务奖励的金额\n        // 但是可能会有一个潜在的BUG，那就是在任务完成之后并没有\n        // 将其内容全部清零\n        taskCollaterals[requester] = exceptedRewards;\n        remainingWorkers[requester] = workers_needed;\n        emit TaskPublished(requester, description);\n    }\n    // 给定一个地址，查看其所需要的Workers数量是否已满\n    function RemainingWorkers(address task) public view returns (uint rem) {\n        rem = remainingWorkers[task];\n    }\n    /** \n    * Workers参与任务\n    * 用户想要参加某一个众包任务，它需要缴纳一定的押金，一部分是作为激励\n    * 同时也是为了防止用户进行女巫攻击\n    **/\n    function JoinCrowdsourcingTask(address payable worker, address payable task) public {\n        uint remWorkers = remainingWorkers[task];\n        require (remWorkers > 0, \"The task no longer needs more worker\");\n        require (workerCollaterals[worker] >= taskCollaterals[task], \"Not enough amount to pay the collaterals\");\n        workersOfTask[task][worker] = true;\n        workerAwards[worker] += taskCollaterals[task];\n        workerCollaterals[worker] -= taskCollaterals[task];\n        // 此时任务算是被workers接受了\n        remainingWorkers[task]--;\n    }\n    /**\n    * 进行任务奖励\n    * 按照我们设计的协议，任务应该是由Workers直接提交到Requesters的，\n    * 但是目前在这里作为测试用例，在智能合约上面实现该操作\n    */\n    function Rewarding(address payable worker, bool isok) public {\n        // 只有Requester才能调用此信息\n        require(workersOfTask[msg.sender][worker] == true, \"Only requester can call this to workers who participants its task\");\n        if (isok) {\n            worker.transfer(workerAwards[worker]+taskCollaterals[msg.sender]);\n        }\n        else {\n            worker.transfer(workerAwards[worker]);\n        }\n        // 奖励已经发出，现在清除其状态\n        workersOfTask[msg.sender][worker] = false;\n        workerAwards[worker] = 0;\n    }\n    // 辅助函数，用来进行从uint到string的转化，这一步主要是帮助Contracs进行任务的转化\n    function uintToString(uint v) internal pure returns (string memory str) {\n        uint maxlength = 100;\n        bytes memory reversed = new bytes(maxlength);\n        uint i = 0;\n        while (v != 0) {\n            uint remainder = v % 10;\n            v = v / 10;\n            reversed[i++] = byte(uint8(48 + remainder));\n        }\n        bytes memory s = new bytes(i);\n        for (uint j = 0; j < i; j++) {\n            s[j] = reversed[i - 1 - j];\n        }\n        str = string(s);\n    }\n    function addString(string memory a, string memory b) internal pure returns (string memory) {\n        return string(abi.encodePacked(a, b));\n    }\n    // 将字符串转化为固定长度的Bytes32，这样客户端可以很方便的将Event重新转化为字符串再进行描述\n    function stringToBytes32(string memory source) internal pure returns (bytes32 result) {\n        bytes memory tempEmptyStringTest = bytes(source);\n        if (tempEmptyStringTest.length == 0) {\n            return 0x0;\n        }\n        assembly {\n            result := mload(add(source, 32))\n        }\n    }\n}\n",
  "sourcePath": "/home/wang/Documents/Codes/SmartContract/Crowdsourcing/contracts/Crowdsourcing.sol",
  "compiler": {
    "name": "solc",
    "version": "0.5.16+commit.9c3226ce.Emscripten.clang"
  },
  "schemaVersion": "3.3.1",
  "updatedAt": "2020-10-30T11:58:18.845Z",
  "networkType": "ethereum",
  "devdoc": {
    "methods": {}
  },
  "userdoc": {
    "methods": {
      "JoinCrowdsourcingTask(address,address)": {
        "notice": "Workers参与任务 用户想要参加某一个众包任务，它需要缴纳一定的押金，一部分是作为激励 同时也是为了防止用户进行女巫攻击*"
      },
      "Rewarding(address,bool)": {
        "notice": "进行任务奖励 按照我们设计的协议，任务应该是由Workers直接提交到Requesters的， 但是目前在这里作为测试用例，在智能合约上面实现该操作"
      }
    }
  }
}