{
  "contractName": "Crowdsourcing",
  "abi": [
    {
      "inputs": [],
      "stateMutability": "nonpayable",
      "type": "constructor"
    },
    {
      "anonymous": false,
      "inputs": [
        {
          "indexed": true,
          "internalType": "address",
          "name": "owner",
          "type": "address"
        },
        {
          "indexed": true,
          "internalType": "address",
          "name": "spender",
          "type": "address"
        },
        {
          "indexed": false,
          "internalType": "uint256",
          "name": "value",
          "type": "uint256"
        }
      ],
      "name": "Approval",
      "type": "event"
    },
    {
      "anonymous": false,
      "inputs": [
        {
          "indexed": true,
          "internalType": "address",
          "name": "_from",
          "type": "address"
        },
        {
          "indexed": false,
          "internalType": "bytes",
          "name": "data",
          "type": "bytes"
        }
      ],
      "name": "DataSubmitted",
      "type": "event"
    },
    {
      "anonymous": false,
      "inputs": [
        {
          "indexed": true,
          "internalType": "address",
          "name": "_task",
          "type": "address"
        },
        {
          "indexed": false,
          "internalType": "string",
          "name": "description",
          "type": "string"
        }
      ],
      "name": "TaskPublished",
      "type": "event"
    },
    {
      "anonymous": false,
      "inputs": [
        {
          "indexed": true,
          "internalType": "address",
          "name": "_from",
          "type": "address"
        },
        {
          "indexed": true,
          "internalType": "address",
          "name": "_to",
          "type": "address"
        },
        {
          "indexed": false,
          "internalType": "uint256",
          "name": "_val",
          "type": "uint256"
        }
      ],
      "name": "Tranfer",
      "type": "event"
    },
    {
      "anonymous": false,
      "inputs": [
        {
          "indexed": true,
          "internalType": "address",
          "name": "from",
          "type": "address"
        },
        {
          "indexed": true,
          "internalType": "address",
          "name": "to",
          "type": "address"
        },
        {
          "indexed": false,
          "internalType": "uint256",
          "name": "value",
          "type": "uint256"
        }
      ],
      "name": "Transfer",
      "type": "event"
    },
    {
      "inputs": [
        {
          "internalType": "address",
          "name": "owner",
          "type": "address"
        },
        {
          "internalType": "address",
          "name": "spender",
          "type": "address"
        }
      ],
      "name": "allowance",
      "outputs": [
        {
          "internalType": "uint256",
          "name": "",
          "type": "uint256"
        }
      ],
      "stateMutability": "view",
      "type": "function"
    },
    {
      "inputs": [
        {
          "internalType": "address",
          "name": "spender",
          "type": "address"
        },
        {
          "internalType": "uint256",
          "name": "amount",
          "type": "uint256"
        }
      ],
      "name": "approve",
      "outputs": [
        {
          "internalType": "bool",
          "name": "",
          "type": "bool"
        }
      ],
      "stateMutability": "nonpayable",
      "type": "function"
    },
    {
      "inputs": [
        {
          "internalType": "address",
          "name": "account",
          "type": "address"
        }
      ],
      "name": "balanceOf",
      "outputs": [
        {
          "internalType": "uint256",
          "name": "",
          "type": "uint256"
        }
      ],
      "stateMutability": "view",
      "type": "function"
    },
    {
      "inputs": [],
      "name": "decimals",
      "outputs": [
        {
          "internalType": "uint8",
          "name": "",
          "type": "uint8"
        }
      ],
      "stateMutability": "view",
      "type": "function"
    },
    {
      "inputs": [
        {
          "internalType": "address",
          "name": "spender",
          "type": "address"
        },
        {
          "internalType": "uint256",
          "name": "subtractedValue",
          "type": "uint256"
        }
      ],
      "name": "decreaseAllowance",
      "outputs": [
        {
          "internalType": "bool",
          "name": "",
          "type": "bool"
        }
      ],
      "stateMutability": "nonpayable",
      "type": "function"
    },
    {
      "inputs": [
        {
          "internalType": "address",
          "name": "spender",
          "type": "address"
        },
        {
          "internalType": "uint256",
          "name": "addedValue",
          "type": "uint256"
        }
      ],
      "name": "increaseAllowance",
      "outputs": [
        {
          "internalType": "bool",
          "name": "",
          "type": "bool"
        }
      ],
      "stateMutability": "nonpayable",
      "type": "function"
    },
    {
      "inputs": [],
      "name": "name",
      "outputs": [
        {
          "internalType": "string",
          "name": "",
          "type": "string"
        }
      ],
      "stateMutability": "view",
      "type": "function"
    },
    {
      "inputs": [],
      "name": "symbol",
      "outputs": [
        {
          "internalType": "string",
          "name": "",
          "type": "string"
        }
      ],
      "stateMutability": "view",
      "type": "function"
    },
    {
      "inputs": [],
      "name": "totalSupply",
      "outputs": [
        {
          "internalType": "uint256",
          "name": "",
          "type": "uint256"
        }
      ],
      "stateMutability": "view",
      "type": "function"
    },
    {
      "inputs": [
        {
          "internalType": "address",
          "name": "recipient",
          "type": "address"
        },
        {
          "internalType": "uint256",
          "name": "amount",
          "type": "uint256"
        }
      ],
      "name": "transfer",
      "outputs": [
        {
          "internalType": "bool",
          "name": "",
          "type": "bool"
        }
      ],
      "stateMutability": "nonpayable",
      "type": "function"
    },
    {
      "inputs": [
        {
          "internalType": "address",
          "name": "sender",
          "type": "address"
        },
        {
          "internalType": "address",
          "name": "recipient",
          "type": "address"
        },
        {
          "internalType": "uint256",
          "name": "amount",
          "type": "uint256"
        }
      ],
      "name": "transferFrom",
      "outputs": [
        {
          "internalType": "bool",
          "name": "",
          "type": "bool"
        }
      ],
      "stateMutability": "nonpayable",
      "type": "function"
    },
    {
      "stateMutability": "payable",
      "type": "receive"
    },
    {
      "inputs": [
        {
          "internalType": "address payable",
          "name": "requester",
          "type": "address"
        },
        {
          "internalType": "uint256",
          "name": "collater",
          "type": "uint256"
        },
        {
          "internalType": "uint256",
          "name": "workers_needed",
          "type": "uint256"
        },
        {
          "internalType": "string",
          "name": "description",
          "type": "string"
        }
      ],
      "name": "PublishCrowdsourcingTask",
      "outputs": [],
      "stateMutability": "nonpayable",
      "type": "function"
    },
    {
      "inputs": [
        {
          "internalType": "address",
          "name": "task",
          "type": "address"
        }
      ],
      "name": "RemainingWorkers",
      "outputs": [
        {
          "internalType": "uint256",
          "name": "rem",
          "type": "uint256"
        }
      ],
      "stateMutability": "view",
      "type": "function"
    },
    {
      "inputs": [
        {
          "internalType": "address payable",
          "name": "worker",
          "type": "address"
        },
        {
          "internalType": "address payable",
          "name": "task",
          "type": "address"
        }
      ],
      "name": "JoinCrowdsourcingTask",
      "outputs": [],
      "stateMutability": "nonpayable",
      "type": "function"
    },
    {
      "inputs": [
        {
          "internalType": "address payable",
          "name": "task",
          "type": "address"
        },
        {
          "internalType": "bytes",
          "name": "data",
          "type": "bytes"
        }
      ],
      "name": "SubmitData",
      "outputs": [],
      "stateMutability": "nonpayable",
      "type": "function"
    },
    {
      "inputs": [
        {
          "internalType": "address payable",
          "name": "worker",
          "type": "address"
        },
        {
          "internalType": "bool",
          "name": "isok",
          "type": "bool"
        }
      ],
      "name": "Rewarding",
      "outputs": [],
      "stateMutability": "nonpayable",
      "type": "function"
    }
  ],
  "bytecode": "0x60806040523480156200001157600080fd5b506040518060400160405280601481526020017f5461736b5375626d697373696f6e5469636b65740000000000000000000000008152506040518060400160405280600381526020017f5453540000000000000000000000000000000000000000000000000000000000815250816003908051906020019062000096929190620000d4565b508060049080519060200190620000af929190620000d4565b506012600560006101000a81548160ff021916908360ff160217905550505062000183565b828054600181600116156101000203166002900490600052602060002090601f016020900481019282601f106200011757805160ff191683800117855562000148565b8280016001018555821562000148579182015b82811115620001475782518255916020019190600101906200012a565b5b5090506200015791906200015b565b5090565b6200018091905b808211156200017c57600081600090555060010162000162565b5090565b90565b61275480620001936000396000f3fe6080604052600436106100f75760003560e01c806370a082311161008a578063a63ac6c211610059578063a63ac6c2146109d2578063a9059cbb14610a2f578063bdab9a0e14610aa2578063dd62ed3e14610b9e57610442565b806370a08231146107f957806394d5739b1461085e57806395d89b41146108cf578063a457c2d71461095f57610442565b806323b872dd116100c657806323b872dd146105da578063313ce5671461066d578063395093511461069e5780636bdeba391461071157610442565b806306fdde0314610447578063095ea7b3146104d7578063099124511461054a57806318160ddd146105af57610442565b366104425760606040518060400160405280600181526020017f01000000000000000000000000000000000000000000000000000000000000008152509050606060405180604001604052806001815260200160008152509050816040516020018082805190602001908083835b602083106101885780518252602082019150602081019050602083039250610165565b6001836020036101000a038019825116818451168082178552505050505050905001915050604051602081830303815290604052805190602001206000366040516020018083838082843780830192505050925050506040516020818303038152906040528051906020012014806102a05750806040516020018082805190602001908083835b60208310610232578051825260208201915060208101905060208303925061020f565b6001836020036101000a0380198251168184511680821785525050505050509050019150506040516020818303038152906040528051906020012060003660405160200180838380828437808301925050509250505060405160208183030381529060405280519060200120145b6102f5576040517f08c379a00000000000000000000000000000000000000000000000000000000081526004018080602001828103825260288152602001806126d26028913960400191505060405180910390fd5b816040516020018082805190602001908083835b6020831061032c5780518252602082019150602081019050602083039250610309565b6001836020036101000a038019825116818451168082178552505050505050905001915050604051602081830303815290604052805190602001206000366040516020018083838082843780830192505050925050506040516020818303038152906040528051906020012014156103f05734600760003373ffffffffffffffffffffffffffffffffffffffff1673ffffffffffffffffffffffffffffffffffffffff1681526020019081526020016000206000828254019250508190555061043e565b34600660003373ffffffffffffffffffffffffffffffffffffffff1673ffffffffffffffffffffffffffffffffffffffff168152602001908152602001600020600082825401925050819055505b5050005b600080fd5b34801561045357600080fd5b5061045c610c23565b6040518080602001828103825283818151815260200191508051906020019080838360005b8381101561049c578082015181840152602081019050610481565b50505050905090810190601f1680156104c95780820380516001836020036101000a031916815260200191505b509250505060405180910390f35b3480156104e357600080fd5b50610530600480360360408110156104fa57600080fd5b81019080803573ffffffffffffffffffffffffffffffffffffffff16906020019092919080359060200190929190505050610cc5565b604051808215151515815260200191505060405180910390f35b34801561055657600080fd5b506105996004803603602081101561056d57600080fd5b81019080803573ffffffffffffffffffffffffffffffffffffffff169060200190929190505050610ce3565b6040518082815260200191505060405180910390f35b3480156105bb57600080fd5b506105c4610d2c565b6040518082815260200191505060405180910390f35b3480156105e657600080fd5b50610653600480360360608110156105fd57600080fd5b81019080803573ffffffffffffffffffffffffffffffffffffffff169060200190929190803573ffffffffffffffffffffffffffffffffffffffff16906020019092919080359060200190929190505050610d36565b604051808215151515815260200191505060405180910390f35b34801561067957600080fd5b50610682610e0f565b604051808260ff1660ff16815260200191505060405180910390f35b3480156106aa57600080fd5b506106f7600480360360408110156106c157600080fd5b81019080803573ffffffffffffffffffffffffffffffffffffffff16906020019092919080359060200190929190505050610e26565b604051808215151515815260200191505060405180910390f35b34801561071d57600080fd5b506107f76004803603604081101561073457600080fd5b81019080803573ffffffffffffffffffffffffffffffffffffffff1690602001909291908035906020019064010000000081111561077157600080fd5b82018360208201111561078357600080fd5b803590602001918460018302840111640100000000831117156107a557600080fd5b91908080601f016020809104026020016040519081016040528093929190818152602001838380828437600081840152601f19601f820116905080830192505050505050509192919290505050610ed9565b005b34801561080557600080fd5b506108486004803603602081101561081c57600080fd5b81019080803573ffffffffffffffffffffffffffffffffffffffff169060200190929190505050611128565b6040518082815260200191505060405180910390f35b34801561086a57600080fd5b506108cd6004803603604081101561088157600080fd5b81019080803573ffffffffffffffffffffffffffffffffffffffff169060200190929190803573ffffffffffffffffffffffffffffffffffffffff169060200190929190505050611170565b005b3480156108db57600080fd5b506108e46114e6565b6040518080602001828103825283818151815260200191508051906020019080838360005b83811015610924578082015181840152602081019050610909565b50505050905090810190601f1680156109515780820380516001836020036101000a031916815260200191505b509250505060405180910390f35b34801561096b57600080fd5b506109b86004803603604081101561098257600080fd5b81019080803573ffffffffffffffffffffffffffffffffffffffff16906020019092919080359060200190929190505050611588565b604051808215151515815260200191505060405180910390f35b3480156109de57600080fd5b50610a2d600480360360408110156109f557600080fd5b81019080803573ffffffffffffffffffffffffffffffffffffffff169060200190929190803515159060200190929190505050611655565b005b348015610a3b57600080fd5b50610a8860048036036040811015610a5257600080fd5b81019080803573ffffffffffffffffffffffffffffffffffffffff169060200190929190803590602001909291905050506119f8565b604051808215151515815260200191505060405180910390f35b348015610aae57600080fd5b50610b9c60048036036080811015610ac557600080fd5b81019080803573ffffffffffffffffffffffffffffffffffffffff169060200190929190803590602001909291908035906020019092919080359060200190640100000000811115610b1657600080fd5b820183602082011115610b2857600080fd5b80359060200191846001830284011164010000000083111715610b4a57600080fd5b91908080601f016020809104026020016040519081016040528093929190818152602001838380828437600081840152601f19601f820116905080830192505050505050509192919290505050611a16565b005b348015610baa57600080fd5b50610c0d60048036036040811015610bc157600080fd5b81019080803573ffffffffffffffffffffffffffffffffffffffff169060200190929190803573ffffffffffffffffffffffffffffffffffffffff169060200190929190505050611c9d565b6040518082815260200191505060405180910390f35b606060038054600181600116156101000203166002900480601f016020809104026020016040519081016040528092919081815260200182805460018160011615610100020316600290048015610cbb5780601f10610c9057610100808354040283529160200191610cbb565b820191906000526020600020905b815481529060010190602001808311610c9e57829003601f168201915b5050505050905090565b6000610cd9610cd2611d24565b8484611d2c565b6001905092915050565b6000600860008373ffffffffffffffffffffffffffffffffffffffff1673ffffffffffffffffffffffffffffffffffffffff168152602001908152602001600020549050919050565b6000600254905090565b6000610d43848484611f23565b610e0484610d4f611d24565b610dff8560405180606001604052806028815260200161266160289139600160008b73ffffffffffffffffffffffffffffffffffffffff1673ffffffffffffffffffffffffffffffffffffffff1681526020019081526020016000206000610db5611d24565b73ffffffffffffffffffffffffffffffffffffffff1673ffffffffffffffffffffffffffffffffffffffff168152602001908152602001600020546121e49092919063ffffffff16565b611d2c565b600190509392505050565b6000600560009054906101000a900460ff16905090565b6000610ecf610e33611d24565b84610eca8560016000610e44611d24565b73ffffffffffffffffffffffffffffffffffffffff1673ffffffffffffffffffffffffffffffffffffffff16815260200190815260200160002060008973ffffffffffffffffffffffffffffffffffffffff1673ffffffffffffffffffffffffffffffffffffffff168152602001908152602001600020546122a490919063ffffffff16565b611d2c565b6001905092915050565b60001515600b60008473ffffffffffffffffffffffffffffffffffffffff1673ffffffffffffffffffffffffffffffffffffffff16815260200190815260200160002060003373ffffffffffffffffffffffffffffffffffffffff1673ffffffffffffffffffffffffffffffffffffffff16815260200190815260200160002060009054906101000a900460ff16151514610fdc576040517f08c379a000000000000000000000000000000000000000000000000000000000815260040180806020018281038252601f8152602001807f596f7520616c7265616479207375626d697474656420796f757220646174610081525060200191505060405180910390fd5b6001600b60008473ffffffffffffffffffffffffffffffffffffffff1673ffffffffffffffffffffffffffffffffffffffff16815260200190815260200160002060003373ffffffffffffffffffffffffffffffffffffffff1673ffffffffffffffffffffffffffffffffffffffff16815260200190815260200160002060006101000a81548160ff0219169083151502179055508173ffffffffffffffffffffffffffffffffffffffff167f5548223a2b92aad353ef26dad7dcdb43551e721b55887bb3a8b75f52f7bbc3d3826040518080602001828103825283818151815260200191508051906020019080838360005b838110156110ea5780820151818401526020810190506110cf565b50505050905090810190601f1680156111175780820380516001836020036101000a031916815260200191505b509250505060405180910390a25050565b60008060008373ffffffffffffffffffffffffffffffffffffffff1673ffffffffffffffffffffffffffffffffffffffff168152602001908152602001600020549050919050565b6000600860008373ffffffffffffffffffffffffffffffffffffffff1673ffffffffffffffffffffffffffffffffffffffff1681526020019081526020016000205490506000811161120d576040517f08c379a00000000000000000000000000000000000000000000000000000000081526004018080602001828103825260248152602001806125696024913960400191505060405180910390fd5b600960008373ffffffffffffffffffffffffffffffffffffffff1673ffffffffffffffffffffffffffffffffffffffff16815260200190815260200160002054600660008573ffffffffffffffffffffffffffffffffffffffff1673ffffffffffffffffffffffffffffffffffffffff1681526020019081526020016000205410156112e4576040517f08c379a00000000000000000000000000000000000000000000000000000000081526004018080602001828103825260288152602001806125b06028913960400191505060405180910390fd5b6001600b60008473ffffffffffffffffffffffffffffffffffffffff1673ffffffffffffffffffffffffffffffffffffffff16815260200190815260200160002060008573ffffffffffffffffffffffffffffffffffffffff1673ffffffffffffffffffffffffffffffffffffffff16815260200190815260200160002060006101000a81548160ff021916908315150217905550600960008373ffffffffffffffffffffffffffffffffffffffff1673ffffffffffffffffffffffffffffffffffffffff16815260200190815260200160002054600a60008573ffffffffffffffffffffffffffffffffffffffff1673ffffffffffffffffffffffffffffffffffffffff16815260200190815260200160002060008282540192505081905550600960008373ffffffffffffffffffffffffffffffffffffffff1673ffffffffffffffffffffffffffffffffffffffff16815260200190815260200160002054600660008573ffffffffffffffffffffffffffffffffffffffff1673ffffffffffffffffffffffffffffffffffffffff16815260200190815260200160002060008282540392505081905550600860008373ffffffffffffffffffffffffffffffffffffffff1673ffffffffffffffffffffffffffffffffffffffff1681526020019081526020016000206000815480929190600190039190505550505050565b606060048054600181600116156101000203166002900480601f01602080910402602001604051908101604052809291908181526020018280546001816001161561010002031660029004801561157e5780601f106115535761010080835404028352916020019161157e565b820191906000526020600020905b81548152906001019060200180831161156157829003601f168201915b5050505050905090565b600061164b611595611d24565b84611646856040518060600160405280602581526020016126fa60259139600160006115bf611d24565b73ffffffffffffffffffffffffffffffffffffffff1673ffffffffffffffffffffffffffffffffffffffff16815260200190815260200160002060008a73ffffffffffffffffffffffffffffffffffffffff1673ffffffffffffffffffffffffffffffffffffffff168152602001908152602001600020546121e49092919063ffffffff16565b611d2c565b6001905092915050565b60011515600b60003373ffffffffffffffffffffffffffffffffffffffff1673ffffffffffffffffffffffffffffffffffffffff16815260200190815260200160002060008473ffffffffffffffffffffffffffffffffffffffff1673ffffffffffffffffffffffffffffffffffffffff16815260200190815260200160002060009054906101000a900460ff1615151461173b576040517f08c379a00000000000000000000000000000000000000000000000000000000081526004018080602001828103825260418152602001806126206041913960600191505060405180910390fd5b801561180d578173ffffffffffffffffffffffffffffffffffffffff166108fc600960003373ffffffffffffffffffffffffffffffffffffffff1673ffffffffffffffffffffffffffffffffffffffff16815260200190815260200160002054600a60008673ffffffffffffffffffffffffffffffffffffffff1673ffffffffffffffffffffffffffffffffffffffff16815260200190815260200160002054019081150290604051600060405180830381858888f19350505050158015611807573d6000803e3d6000fd5b5061191a565b8173ffffffffffffffffffffffffffffffffffffffff166108fc600a60008573ffffffffffffffffffffffffffffffffffffffff1673ffffffffffffffffffffffffffffffffffffffff168152602001908152602001600020549081150290604051600060405180830381858888f19350505050158015611892573d6000803e3d6000fd5b503373ffffffffffffffffffffffffffffffffffffffff166108fc600960003373ffffffffffffffffffffffffffffffffffffffff1673ffffffffffffffffffffffffffffffffffffffff168152602001908152602001600020549081150290604051600060405180830381858888f19350505050158015611918573d6000803e3d6000fd5b505b6000600b60003373ffffffffffffffffffffffffffffffffffffffff1673ffffffffffffffffffffffffffffffffffffffff16815260200190815260200160002060008473ffffffffffffffffffffffffffffffffffffffff1673ffffffffffffffffffffffffffffffffffffffff16815260200190815260200160002060006101000a81548160ff0219169083151502179055506000600a60008473ffffffffffffffffffffffffffffffffffffffff1673ffffffffffffffffffffffffffffffffffffffff168152602001908152602001600020819055505050565b6000611a0c611a05611d24565b8484611f23565b6001905092915050565b82600760008673ffffffffffffffffffffffffffffffffffffffff1673ffffffffffffffffffffffffffffffffffffffff168152602001908152602001600020541015611aae576040517f08c379a00000000000000000000000000000000000000000000000000000000081526004018080602001828103825260288152602001806125b06028913960400191505060405180910390fd5b6000828481611ab957fe5b049050611b0c82611b076040518060400160405280600a81526020017f0a526577617264733a2000000000000000000000000000000000000000000000815250611b028561232c565b61249b565b61249b565b915083600760008773ffffffffffffffffffffffffffffffffffffffff1673ffffffffffffffffffffffffffffffffffffffff1681526020019081526020016000206000828254039250508190555080600960008773ffffffffffffffffffffffffffffffffffffffff1673ffffffffffffffffffffffffffffffffffffffff1681526020019081526020016000208190555082600860008773ffffffffffffffffffffffffffffffffffffffff1673ffffffffffffffffffffffffffffffffffffffff168152602001908152602001600020819055508473ffffffffffffffffffffffffffffffffffffffff167f362295b99791fb7f9cc554e61353656ac0f62436a3a559d02ad33dd59a038de6836040518080602001828103825283818151815260200191508051906020019080838360005b83811015611c5c578082015181840152602081019050611c41565b50505050905090810190601f168015611c895780820380516001836020036101000a031916815260200191505b509250505060405180910390a25050505050565b6000600160008473ffffffffffffffffffffffffffffffffffffffff1673ffffffffffffffffffffffffffffffffffffffff16815260200190815260200160002060008373ffffffffffffffffffffffffffffffffffffffff1673ffffffffffffffffffffffffffffffffffffffff16815260200190815260200160002054905092915050565b600033905090565b600073ffffffffffffffffffffffffffffffffffffffff168373ffffffffffffffffffffffffffffffffffffffff161415611db2576040517f08c379a00000000000000000000000000000000000000000000000000000000081526004018080602001828103825260248152602001806126ae6024913960400191505060405180910390fd5b600073ffffffffffffffffffffffffffffffffffffffff168273ffffffffffffffffffffffffffffffffffffffff161415611e38576040517f08c379a00000000000000000000000000000000000000000000000000000000081526004018080602001828103825260228152602001806125d86022913960400191505060405180910390fd5b80600160008573ffffffffffffffffffffffffffffffffffffffff1673ffffffffffffffffffffffffffffffffffffffff16815260200190815260200160002060008473ffffffffffffffffffffffffffffffffffffffff1673ffffffffffffffffffffffffffffffffffffffff168152602001908152602001600020819055508173ffffffffffffffffffffffffffffffffffffffff168373ffffffffffffffffffffffffffffffffffffffff167f8c5be1e5ebec7d5bd14f71427d1e84f3dd0314c0f7b2291e5b200ac8c7c3b925836040518082815260200191505060405180910390a3505050565b600073ffffffffffffffffffffffffffffffffffffffff168373ffffffffffffffffffffffffffffffffffffffff161415611fa9576040517f08c379a00000000000000000000000000000000000000000000000000000000081526004018080602001828103825260258152602001806126896025913960400191505060405180910390fd5b600073ffffffffffffffffffffffffffffffffffffffff168273ffffffffffffffffffffffffffffffffffffffff16141561202f576040517f08c379a000000000000000000000000000000000000000000000000000000000815260040180806020018281038252602381526020018061258d6023913960400191505060405180910390fd5b61203a838383612563565b6120a5816040518060600160405280602681526020016125fa602691396000808773ffffffffffffffffffffffffffffffffffffffff1673ffffffffffffffffffffffffffffffffffffffff168152602001908152602001600020546121e49092919063ffffffff16565b6000808573ffffffffffffffffffffffffffffffffffffffff1673ffffffffffffffffffffffffffffffffffffffff16815260200190815260200160002081905550612138816000808573ffffffffffffffffffffffffffffffffffffffff1673ffffffffffffffffffffffffffffffffffffffff168152602001908152602001600020546122a490919063ffffffff16565b6000808473ffffffffffffffffffffffffffffffffffffffff1673ffffffffffffffffffffffffffffffffffffffff168152602001908152602001600020819055508173ffffffffffffffffffffffffffffffffffffffff168373ffffffffffffffffffffffffffffffffffffffff167fddf252ad1be2c89b69c2b068fc378daa952ba7f163c4a11628f55a4df523b3ef836040518082815260200191505060405180910390a3505050565b6000838311158290612291576040517f08c379a00000000000000000000000000000000000000000000000000000000081526004018080602001828103825283818151815260200191508051906020019080838360005b8381101561225657808201518184015260208101905061223b565b50505050905090810190601f1680156122835780820380516001836020036101000a031916815260200191505b509250505060405180910390fd5b5060008385039050809150509392505050565b600080828401905083811015612322576040517f08c379a000000000000000000000000000000000000000000000000000000000815260040180806020018281038252601b8152602001807f536166654d6174683a206164646974696f6e206f766572666c6f77000000000081525060200191505060405180910390fd5b8091505092915050565b60606000606490506060816040519080825280601f01601f1916602001820160405280156123695781602001600182028038833980820191505090505b50905060008090505b600085146123e4576000600a868161238657fe5b069050600a868161239357fe5b0495508060300160f81b8383806001019450815181106123af57fe5b60200101907effffffffffffffffffffffffffffffffffffffffffffffffffffffffffffff1916908160001a90535050612372565b6060816040519080825280601f01601f1916602001820160405280156124195781602001600182028038833980820191505090505b50905060008090505b8281101561248e57838160018503038151811061243b57fe5b602001015160f81c60f81b82828151811061245257fe5b60200101907effffffffffffffffffffffffffffffffffffffffffffffffffffffffffffff1916908160001a9053508080600101915050612422565b5080945050505050919050565b606082826040516020018083805190602001908083835b602083106124d557805182526020820191506020810190506020830392506124b2565b6001836020036101000a03801982511681845116808217855250505050505090500182805190602001908083835b602083106125265780518252602082019150602081019050602083039250612503565b6001836020036101000a03801982511681845116808217855250505050505090500192505050604051602081830303815290604052905092915050565b50505056fe546865207461736b206e6f206c6f6e676572206e65656473206d6f726520776f726b657245524332303a207472616e7366657220746f20746865207a65726f20616464726573734e6f7420656e6f75676820616d6f756e7420746f207061792074686520636f6c6c61746572616c7345524332303a20617070726f766520746f20746865207a65726f206164647265737345524332303a207472616e7366657220616d6f756e7420657863656564732062616c616e63654f6e6c79207265717565737465722063616e2063616c6c207468697320746f20776f726b6572732077686f207061727469636970616e747320697473207461736b45524332303a207472616e7366657220616d6f756e74206578636565647320616c6c6f77616e636545524332303a207472616e736665722066726f6d20746865207a65726f206164647265737345524332303a20617070726f76652066726f6d20746865207a65726f2061646472657373596f752073686f756c642065697468657220626520776f726b6572206f722072657175657374657245524332303a2064656372656173656420616c6c6f77616e63652062656c6f77207a65726fa2646970667358221220df09cc9b451ed297e3c6b44fdd21344aaab6e0bb7694b9a2ed3894fd60f9b3dc64736f6c63430006020033",
  "source": "// SPDX-License-Identifier: MIT\npragma solidity >=0.4.22 <0.8.0;\n\nimport \"@openzeppelin/contracts/token/ERC20/ERC20.sol\";\n\n// @title -\n// WorkersRequesters\n// \n//      1. Workers\n//      2. RequestersRequesters\ncontract Crowdsourcing is ERC20 {\n    // Workers\n    mapping(address => uint) workerCollaterals;\n    // RequestersRequesters,\n    // RequestersWorkersWorkersRequesters\n    // \n    mapping(address => uint) requesterCollaterals;\n    // Workers\n    mapping(address => uint) remainingWorkers;\n    // \n    mapping(address => uint) taskCollaterals;\n    // Worker\n    mapping(address => uint) workerAwards;\n    // workers\n    mapping(address => mapping(address => bool)) workersOfTask;\n    // worker\n    mapping(address => mapping(address => bool)) dataSubmitted;\n    // \n    // Event\n    // Requester\n    // WorkersWorkers\n    // \n    event TaskPublished(address indexed _task, string description);\n    event Tranfer(address indexed _from, address indexed _to, uint _val);\n    event DataSubmitted(address indexed _from, bytes data);\n    /**\n     * Smart Contract\n     * Fallback Function. \n     * Requester\n     * Requesters\n     * Workers \n     * Workers\n     */\n    constructor() public ERC20(\"TaskSubmissionTicket\", \"TST\") {\n    }\n    // Change to receive according to Solidity v0.6.0 specification https://docs.soliditylang.org/en/v0.6.0/contracts.html#receive-ether-function.\n    receive() external payable {\n        bytes memory requester = hex\"01\";\n        bytes memory worker = hex\"00\";\n        require(keccak256(abi.encodePacked(msg.data)) == keccak256(abi.encodePacked(requester)) || \n            keccak256(abi.encodePacked(msg.data)) == keccak256(abi.encodePacked(worker)), \n            \"You should either be worker or requester\");\n        if (keccak256(abi.encodePacked(msg.data)) == keccak256(abi.encodePacked(requester))) {\n            requesterCollaterals[msg.sender] += msg.value;\n        }\n        else {\n            workerCollaterals[msg.sender] += msg.value;\n        }\n    }\n    // \n    // Event\n    // WorkersEventTasks\n    // \n    function PublishCrowdsourcingTask(address payable requester, uint collater, uint workers_needed, string memory description) public {\n        // \n        require (requesterCollaterals[requester] >= collater, \"Not enough amount to pay the collaterals\");\n        uint exceptedRewards = collater / workers_needed;\n        description = addString(description, addString(\"\\nRewards: \", uintToString(exceptedRewards)));\n        // Requester\n        // collater\n        requesterCollaterals[requester] -= collater;\n        // \n        // BUG\n        // \n        taskCollaterals[requester] = exceptedRewards;\n        remainingWorkers[requester] = workers_needed;\n        emit TaskPublished(requester, description);\n    }\n    // Workers\n    function RemainingWorkers(address task) public view returns (uint rem) {\n        rem = remainingWorkers[task];\n    }\n    /** \n    * Workers\n    * \n    * \n    **/\n    function JoinCrowdsourcingTask(address payable worker, address payable task) public {\n        uint remWorkers = remainingWorkers[task];\n        require (remWorkers > 0, \"The task no longer needs more worker\");\n        require (workerCollaterals[worker] >= taskCollaterals[task], \"Not enough amount to pay the collaterals\");\n        workersOfTask[task][worker] = true;\n        workerAwards[worker] += taskCollaterals[task];\n        workerCollaterals[worker] -= taskCollaterals[task];\n        // workers\n        remainingWorkers[task]--;\n    }\n    /**\n    * Workers\n    * \n    * \n    * Requester\n    */\n    function SubmitData(address payable task, bytes memory data) public {\n        // For each requester, the worker can only upload\n        // the encrypted data it collects at most once to avoid\n        // a user uses the same address to upload multiple data\n        require(workersOfTask[task][msg.sender] == false, \"You already submitted your data\");\n        workersOfTask[task][msg.sender] = true;\n        emit DataSubmitted(task, data); // Requester by subscription to track the process of the current task\n    }\n    /**\n    * \n    * WorkersRequesters\n    * \n    */\n    function Rewarding(address payable worker, bool isok) public {\n        // Requester\n        require(workersOfTask[msg.sender][worker] == true, \"Only requester can call this to workers who participants its task\");\n        if (isok) {\n            worker.transfer(workerAwards[worker]+taskCollaterals[msg.sender]);\n        }\n        else {\n            worker.transfer(workerAwards[worker]);\n            msg.sender.transfer(taskCollaterals[msg.sender]);\n        }\n        // \n        workersOfTask[msg.sender][worker] = false;\n        workerAwards[worker] = 0;\n    }\n    // uintstringContracs\n    function uintToString(uint v) internal pure returns (string memory str) {\n        uint maxlength = 100;\n        bytes memory reversed = new bytes(maxlength);\n        uint i = 0;\n        while (v != 0) {\n            uint remainder = v % 10;\n            v = v / 10;\n            reversed[i++] = byte(uint8(48 + remainder));\n        }\n        bytes memory s = new bytes(i);\n        for (uint j = 0; j < i; j++) {\n            s[j] = reversed[i - 1 - j];\n        }\n        str = string(s);\n    }\n    function addString(string memory a, string memory b) internal pure returns (string memory) {\n        return string(abi.encodePacked(a, b));\n    }\n    // Bytes32Event\n    function stringToBytes32(string memory source) internal pure returns (bytes32 result) {\n        bytes memory tempEmptyStringTest = bytes(source);\n        if (tempEmptyStringTest.length == 0) {\n            return 0x0;\n        }\n        assembly {\n            result := mload(add(source, 32))\n        }\n    }\n}\n",
  "sourcePath": "/home/wang/Documents/Codes/SmartContract/Crowdsourcing/contracts/Crowdsourcing.sol",
  "compiler": {
    "name": "solc",
    "version": "0.6.2+commit.bacdbe57.Emscripten.clang"
  },
  "schemaVersion": "3.3.1",
  "updatedAt": "2020-11-17T08:46:35.265Z",
  "devdoc": {
    "methods": {
      "allowance(address,address)": {
        "details": "See {IERC20-allowance}."
      },
      "approve(address,uint256)": {
        "details": "See {IERC20-approve}.     * Requirements:     * - `spender` cannot be the zero address."
      },
      "balanceOf(address)": {
        "details": "See {IERC20-balanceOf}."
      },
      "decimals()": {
        "details": "Returns the number of decimals used to get its user representation. For example, if `decimals` equals `2`, a balance of `505` tokens should be displayed to a user as `5,05` (`505 / 10 ** 2`).     * Tokens usually opt for a value of 18, imitating the relationship between Ether and Wei. This is the value {ERC20} uses, unless {_setupDecimals} is called.     * NOTE: This information is only used for _display_ purposes: it in no way affects any of the arithmetic of the contract, including {IERC20-balanceOf} and {IERC20-transfer}."
      },
      "decreaseAllowance(address,uint256)": {
        "details": "Atomically decreases the allowance granted to `spender` by the caller.     * This is an alternative to {approve} that can be used as a mitigation for problems described in {IERC20-approve}.     * Emits an {Approval} event indicating the updated allowance.     * Requirements:     * - `spender` cannot be the zero address. - `spender` must have allowance for the caller of at least `subtractedValue`."
      },
      "increaseAllowance(address,uint256)": {
        "details": "Atomically increases the allowance granted to `spender` by the caller.     * This is an alternative to {approve} that can be used as a mitigation for problems described in {IERC20-approve}.     * Emits an {Approval} event indicating the updated allowance.     * Requirements:     * - `spender` cannot be the zero address."
      },
      "name()": {
        "details": "Returns the name of the token."
      },
      "symbol()": {
        "details": "Returns the symbol of the token, usually a shorter version of the name."
      },
      "totalSupply()": {
        "details": "See {IERC20-totalSupply}."
      },
      "transfer(address,uint256)": {
        "details": "See {IERC20-transfer}.     * Requirements:     * - `recipient` cannot be the zero address. - the caller must have a balance of at least `amount`."
      },
      "transferFrom(address,address,uint256)": {
        "details": "See {IERC20-transferFrom}.     * Emits an {Approval} event indicating the updated allowance. This is not required by the EIP. See the note at the beginning of {ERC20};     * Requirements: - `sender` and `recipient` cannot be the zero address. - `sender` must have a balance of at least `amount`. - the caller must have allowance for ``sender``'s tokens of at least `amount`."
      }
    }
  },
  "userdoc": {
    "methods": {
      "JoinCrowdsourcingTask(address,address)": {
        "notice": "Workers  *"
      },
      "Rewarding(address,bool)": {
        "notice": " WorkersRequesters "
      },
      "SubmitData(address,bytes)": {
        "notice": "Workers   Requester"
      },
      "constructor": "Smart Contract Fallback Function.  Requester Requesters Workers  Workers"
    }
  }
}