{
  "contractName": "Crowdsourcing",
  "abi": [
    {
      "anonymous": false,
      "inputs": [
        {
          "indexed": true,
          "internalType": "address",
          "name": "",
          "type": "address"
        }
      ],
      "name": "MSGSender",
      "type": "event"
    },
    {
      "anonymous": false,
      "inputs": [
        {
          "indexed": true,
          "internalType": "address",
          "name": "_task",
          "type": "address"
        },
        {
          "indexed": false,
          "internalType": "string",
          "name": "description",
          "type": "string"
        }
      ],
      "name": "TaskPublished",
      "type": "event"
    },
    {
      "anonymous": false,
      "inputs": [
        {
          "indexed": true,
          "internalType": "address",
          "name": "_from",
          "type": "address"
        },
        {
          "indexed": true,
          "internalType": "address",
          "name": "_to",
          "type": "address"
        },
        {
          "indexed": false,
          "internalType": "uint256",
          "name": "_val",
          "type": "uint256"
        }
      ],
      "name": "Tranfer",
      "type": "event"
    },
    {
      "payable": true,
      "stateMutability": "payable",
      "type": "fallback"
    },
    {
      "constant": false,
      "inputs": [
        {
          "internalType": "address payable",
          "name": "requester",
          "type": "address"
        },
        {
          "internalType": "uint256",
          "name": "collater",
          "type": "uint256"
        },
        {
          "internalType": "uint256",
          "name": "workers_needed",
          "type": "uint256"
        },
        {
          "internalType": "string",
          "name": "description",
          "type": "string"
        }
      ],
      "name": "PublishCrowdsourcingTask",
      "outputs": [],
      "payable": false,
      "stateMutability": "nonpayable",
      "type": "function"
    },
    {
      "constant": true,
      "inputs": [
        {
          "internalType": "address",
          "name": "task",
          "type": "address"
        }
      ],
      "name": "RemainingWorkers",
      "outputs": [
        {
          "internalType": "uint256",
          "name": "rem",
          "type": "uint256"
        }
      ],
      "payable": false,
      "stateMutability": "view",
      "type": "function"
    },
    {
      "constant": false,
      "inputs": [
        {
          "internalType": "address payable",
          "name": "worker",
          "type": "address"
        },
        {
          "internalType": "address payable",
          "name": "task",
          "type": "address"
        }
      ],
      "name": "JoinCrowdsourcingTask",
      "outputs": [],
      "payable": false,
      "stateMutability": "nonpayable",
      "type": "function"
    }
  ],
  "bytecode": "0x608060405234801561001057600080fd5b50610dcb806100206000396000f3fe6080604052600436106100345760003560e01c806309912451146104f657806394d5739b1461055b578063bdab9a0e146105cc575b60606040518060400160405280600981526020017f7265717565737465720000000000000000000000000000000000000000000000815250905060606040518060400160405280600981526020017f7265717565737465720000000000000000000000000000000000000000000000815250905060606040518060400160405280600681526020017f776f726b657200000000000000000000000000000000000000000000000000008152509050816040516020018082805190602001908083835b6020831061011957805182526020820191506020810190506020830392506100f6565b6001836020036101000a03801982511681845116808217855250505050505090500191505060405160208183030381529060405280519060200120836040516020018082805190602001908083835b6020831061018b5780518252602082019150602081019050602083039250610168565b6001836020036101000a0380198251168184511680821785525050505050509050019150506040516020818303038152906040528051906020012014806102b35750806040516020018082805190602001908083835b6020831061020457805182526020820191506020810190506020830392506101e1565b6001836020036101000a03801982511681845116808217855250505050505090500191505060405160208183030381529060405280519060200120836040516020018082805190602001908083835b602083106102765780518252602082019150602081019050602083039250610253565b6001836020036101000a03801982511681845116808217855250505050505090500191505060405160208183030381529060405280519060200120145b610325576040517f08c379a00000000000000000000000000000000000000000000000000000000081526004018080602001828103825260128152602001807f4e6f7420737570706f727465642064617461000000000000000000000000000081525060200191505060405180910390fd5b816040516020018082805190602001908083835b6020831061035c5780518252602082019150602081019050602083039250610339565b6001836020036101000a03801982511681845116808217855250505050505090500191505060405160208183030381529060405280519060200120836040516020018082805190602001908083835b602083106103ce57805182526020820191506020810190506020830392506103ab565b6001836020036101000a0380198251168184511680821785525050505050509050019150506040516020818303038152906040528051906020012014156104615734600160003373ffffffffffffffffffffffffffffffffffffffff1673ffffffffffffffffffffffffffffffffffffffff168152602001908152602001600020600082825401925050819055506104ae565b346000803373ffffffffffffffffffffffffffffffffffffffff1673ffffffffffffffffffffffffffffffffffffffff168152602001908152602001600020600082825401925050819055505b3373ffffffffffffffffffffffffffffffffffffffff167fe16c119040bcdb2e02bd0b756b6091d619b828f6db4c1ed0fc3040c75f4a621760405160405180910390a2505050005b34801561050257600080fd5b506105456004803603602081101561051957600080fd5b81019080803573ffffffffffffffffffffffffffffffffffffffff1690602001909291905050506106c8565b6040518082815260200191505060405180910390f35b34801561056757600080fd5b506105ca6004803603604081101561057e57600080fd5b81019080803573ffffffffffffffffffffffffffffffffffffffff169060200190929190803573ffffffffffffffffffffffffffffffffffffffff169060200190929190505050610711565b005b3480156105d857600080fd5b506106c6600480360360808110156105ef57600080fd5b81019080803573ffffffffffffffffffffffffffffffffffffffff16906020019092919080359060200190929190803590602001909291908035906020019064010000000081111561064057600080fd5b82018360208201111561065257600080fd5b8035906020019184600183028401116401000000008311171561067457600080fd5b91908080601f016020809104026020016040519081016040528093929190818152602001838380828437600081840152601f19601f8201169050808301925050505050505091929192905050506108d9565b005b6000600260008373ffffffffffffffffffffffffffffffffffffffff1673ffffffffffffffffffffffffffffffffffffffff168152602001908152602001600020549050919050565b6000600260008373ffffffffffffffffffffffffffffffffffffffff1673ffffffffffffffffffffffffffffffffffffffff168152602001908152602001600020549050600081116107ae576040517f08c379a0000000000000000000000000000000000000000000000000000000008152600401808060200182810382526024815260200180610d4b6024913960400191505060405180910390fd5b600360008373ffffffffffffffffffffffffffffffffffffffff1673ffffffffffffffffffffffffffffffffffffffff168152602001908152602001600020546000808473ffffffffffffffffffffffffffffffffffffffff1673ffffffffffffffffffffffffffffffffffffffff168152602001908152602001600020541015610884576040517f08c379a0000000000000000000000000000000000000000000000000000000008152600401808060200182810382526028815260200180610d6f6028913960400191505060405180910390fd5b600260008473ffffffffffffffffffffffffffffffffffffffff1673ffffffffffffffffffffffffffffffffffffffff1681526020019081526020016000206000815480929190600190039190505550505050565b82600160008673ffffffffffffffffffffffffffffffffffffffff1673ffffffffffffffffffffffffffffffffffffffff168152602001908152602001600020541015610971576040517f08c379a0000000000000000000000000000000000000000000000000000000008152600401808060200182810382526028815260200180610d6f6028913960400191505060405180910390fd5b600082848161097c57fe5b0490506109cf826109ca6040518060400160405280600a81526020017f0a526577617264733a20000000000000000000000000000000000000000000008152506109c585610b13565b610c82565b610c82565b915080600360008773ffffffffffffffffffffffffffffffffffffffff1673ffffffffffffffffffffffffffffffffffffffff1681526020019081526020016000208190555082600260008773ffffffffffffffffffffffffffffffffffffffff1673ffffffffffffffffffffffffffffffffffffffff168152602001908152602001600020819055508473ffffffffffffffffffffffffffffffffffffffff167f362295b99791fb7f9cc554e61353656ac0f62436a3a559d02ad33dd59a038de6836040518080602001828103825283818151815260200191508051906020019080838360005b83811015610ad2578082015181840152602081019050610ab7565b50505050905090810190601f168015610aff5780820380516001836020036101000a031916815260200191505b509250505060405180910390a25050505050565b60606000606490506060816040519080825280601f01601f191660200182016040528015610b505781602001600182028038833980820191505090505b50905060008090505b60008514610bcb576000600a8681610b6d57fe5b069050600a8681610b7a57fe5b0495508060300160f81b838380600101945081518110610b9657fe5b60200101907effffffffffffffffffffffffffffffffffffffffffffffffffffffffffffff1916908160001a90535050610b59565b6060816040519080825280601f01601f191660200182016040528015610c005781602001600182028038833980820191505090505b50905060008090505b82811015610c75578381600185030381518110610c2257fe5b602001015160f81c60f81b828281518110610c3957fe5b60200101907effffffffffffffffffffffffffffffffffffffffffffffffffffffffffffff1916908160001a9053508080600101915050610c09565b5080945050505050919050565b606082826040516020018083805190602001908083835b60208310610cbc5780518252602082019150602081019050602083039250610c99565b6001836020036101000a03801982511681845116808217855250505050505090500182805190602001908083835b60208310610d0d5780518252602082019150602081019050602083039250610cea565b6001836020036101000a0380198251168184511680821785525050505050509050019250505060405160208183030381529060405290509291505056fe546865207461736b206e6f206c6f6e676572206e65656473206d6f726520776f726b65724e6f7420656e6f75676820616d6f756e7420746f207061792074686520636f6c6c61746572616c73a265627a7a723158201276a243d17fad4bc52a8785e4660eace0f8f780b340716516dcc99575666bb364736f6c63430005100032",
  "source": "// SPDX-License-Identifier: MIT\npragma solidity >=0.4.22 <0.8.0;\n\n// @title 移动众包-智能合约\n// 主要负责处理Workers和Requesters之间的关系，它需要\n// 进行：\n//      1. 负责审核Workers参与任务的请求\n//      2. 当Requesters创建任务时，保存Requesters所需要的押金\ncontract Crowdsourcing {\n    // 负责保存Workers所提交的押金，每一个地址都保存一定数量的押金\n    mapping(address => uint) workerCollaterals;\n    // 负责保存Requesters所提交的押金，每一个地址都对应一个Requesters,\n    // 上述Requesters和Workers所有的地址都需要Workers和Requesters在每个任务时\n    // 自动生成\n    mapping(address => uint) requesterCollaterals;\n    // 对于一个任务，剩下的Workers数量\n    mapping(address => uint) remainingWorkers;\n    // 对于每个任务所需要的押金\n    mapping(address => uint) taskCollaterals;\n    // 负责在特定条件下用来进行交互的Event，进行交易的触发\n    // 假若Requester完成了任务并进行了评估，那么它就会触发一个交易来\n    // 奖励Workers，同时Workers也可以通过监听该信息来判断其\n    // 是否收到了相应的奖励\n    event Tranfer(address indexed _from, address indexed _to, uint _val);\n    event TaskPublished(address indexed _task, string description);\n    event MSGSender(address indexed);\n    /**\n     * 为了保证该Smart Contract能够接受来自其他用户的押金\n     * 需要实现Fallback Function. \n     * Requester需要将押金从传递到智能合约的地址\n     * 后期为了进行权限控制，需要判断消息发送者是否真的为Requesters\n     * Workers需要将押金从传递到智能合约的地址 \n     * 后期为了进行权限控制，需要判断消息发送者是否真的为Workers\n     */\n    function() external payable {\n        // string memory data = abi.decode(msg.data, (string));\n        string memory data = \"requester\";\n        string memory requester = \"requester\";\n        string memory worker = \"worker\";\n        require(keccak256(abi.encodePacked(data)) == keccak256(abi.encodePacked(requester)) || \n            keccak256(abi.encodePacked(data)) == keccak256(abi.encodePacked(worker)), \n            \"Not supported data\");\n        if (keccak256(abi.encodePacked(data)) == keccak256(abi.encodePacked(requester))) {\n            requesterCollaterals[msg.sender] += msg.value;\n        }\n        else {\n            workerCollaterals[msg.sender] += msg.value;\n        }\n        emit MSGSender(msg.sender);\n    }\n    // \n    // 创建一个新的众包任务，同时该函数会发出一个新的Event表示任务已经创建成功\n    // Workers可以通过订阅这个Event来接收到最新的Tasks的信息，从而自己决定要不要\n    // 参加该众包任务\n    function PublishCrowdsourcingTask(address payable requester, uint collater, uint workers_needed, string memory description) public {\n        // 对任务的信息进行记录，包括保存任务的押金，记录任务需要的人数\n        require (requesterCollaterals[requester] >= collater, \"Not enough amount to pay the collaterals\");\n        uint exceptedRewards = collater / workers_needed;\n        description = addString(description, addString(\"\\nRewards: \", uintToString(exceptedRewards)));\n        // 假若Requester已经提交了押金，那么其在智能合约里面存储的剩余\n        // 押金应该是大于或等于collater的\n        taskCollaterals[requester] = exceptedRewards;\n        remainingWorkers[requester] = workers_needed;\n        emit TaskPublished(requester, description);\n    }\n    // 给定一个地址，查看其所需要的Workers数量是否已满\n    function RemainingWorkers(address task) public view returns (uint rem) {\n        rem = remainingWorkers[task];\n    }\n    /** \n    * Workers参与任务\n    * 用户想要参加某一个众包任务，它需要缴纳一定的押金，一部分是作为激励\n    * 同时也是为了防止用户进行女巫攻击\n    **/\n    function JoinCrowdsourcingTask(address payable worker, address payable task) public {\n        uint remWorkers = remainingWorkers[task];\n        require (remWorkers > 0, \"The task no longer needs more worker\");\n        require (workerCollaterals[task] >= taskCollaterals[task], \"Not enough amount to pay the collaterals\");\n        // 此时任务算是被workers接受了\n        remainingWorkers[worker]--;\n    }\n    /**\n    * 进行任务奖励\n    * 按照我们设计的协议，任务应该是由Workers直接提交到Requesters的，\n    * 但是目前在这里作为测试用例，在智能合约上面实现该操作\n    */\n    // function Rewarding(address payable worker, address payable requester, bool isSatisfy) public {\n    //     require(requester == msg.sender, \"Only requester can trigger this message\");\n    //     if (isSatisfy) {\n    //     }\n    // }\n    // 辅助函数，用来进行从uint到string的转化，这一步主要是帮助Contracs进行任务的转化\n    function uintToString(uint v) internal pure returns (string memory str) {\n        uint maxlength = 100;\n        bytes memory reversed = new bytes(maxlength);\n        uint i = 0;\n        while (v != 0) {\n            uint remainder = v % 10;\n            v = v / 10;\n            reversed[i++] = byte(uint8(48 + remainder));\n        }\n        bytes memory s = new bytes(i);\n        for (uint j = 0; j < i; j++) {\n            s[j] = reversed[i - 1 - j];\n        }\n        str = string(s);\n    }\n    function addString(string memory a, string memory b) internal pure returns (string memory) {\n        return string(abi.encodePacked(a, b));\n    }\n    // 将字符串转化为固定长度的Bytes32，这样客户端可以很方便的将Event重新转化为字符串再进行描述\n    function stringToBytes32(string memory source) internal pure returns (bytes32 result) {\n        bytes memory tempEmptyStringTest = bytes(source);\n        if (tempEmptyStringTest.length == 0) {\n            return 0x0;\n        }\n        assembly {\n            result := mload(add(source, 32))\n        }\n    }\n}\n",
  "sourcePath": "/home/wang/Documents/Codes/SmartContract/Crowdsourcing/contracts/Crowdsourcing.sol",
  "compiler": {
    "name": "solc",
    "version": "0.5.16+commit.9c3226ce.Emscripten.clang"
  },
  "schemaVersion": "3.3.1",
  "updatedAt": "2020-10-29T14:29:24.170Z",
  "networkType": "ethereum",
  "devdoc": {
    "methods": {}
  },
  "userdoc": {
    "methods": {
      "JoinCrowdsourcingTask(address,address)": {
        "notice": "Workers参与任务 用户想要参加某一个众包任务，它需要缴纳一定的押金，一部分是作为激励 同时也是为了防止用户进行女巫攻击*"
      }
    }
  }
}